:0200000280007C
:10000000003B0020650B08000F2708006D28080042
:100010001327080015270800172708000000000014
:100020000000000000000000000000001927080088
:100030001B270800000000001D270800AD2708004E
:10004000232708002527080027270800292708005C
:100050002B2708002D2708002F270800312708002C
:100060008D45080035270800ED2708002D280800D9
:100070003B270800AD45080015410800394108003C
:100080004127080043270800F533080047270800E8
:10009000D13708004B2708004D270800DD4608002F
:1000A00051270800532708003D0D08005727080076
:1000B000592708005B27080000000000000000002E
:1000C0000000000000000000000000000000000030
:1000D0000000000000000000000000000000000020
:1000E0000000000000000000000000000000000010
:1000F0000000000000000000000000000000000000
:08010000088A00000100000064
:100108001000000000000000017A5200027C0E017D
:100118001B0C0D001000000018000000E48900000E
:080128001000000000000000BF
:10013000704770B50446264B53F82030B3F5007F66
:1001400002D0B3F5806F03D1224A125D032A1DD07D
:10015000204A155DFDB91F4A11551D4A02EB840264
:10016000926A4FF4A47000FB02F21B4E9019436098
:1001700003291BD09351012927D00361204604F0A5
:1001800081FE164804F0E6FB284670BD144804F0D2
:10019000E1FB0025F8E7134804F0DCFB204604F0FF
:1001A00071FE114804F0D6FB0125EDE74360084AD3
:1001B00002EB8402126D22B9026F22EA0303036785
:1001C000DCE7026F13430367D8E74361D6E700BF5C
:1001D0005C09080014050020000C0E409402080081
:1001E00038020800600208007C02080008B50023FD
:1001F00004E0094A0021D1540133DBB2092BF8D9BC
:10020000064804F0A7FB064A136843F08003136016
:10021000014B044ADA6008BD14050020AC02080056
:10022000902300203101080008B5024BDB68984795
:1002300008BD00BF14050020426C6164652049328E
:10024000432070696E2061737369676E6564206115
:1002500073207368617265640A0D0000000000007D
:10026000526571756573742064656E6965643A20C2
:10027000426C6164652070696E20000020616C72C0
:100280006561647920616C6C6F63617465640A0DEB
:10029000000000002070696E20426C61646520617E
:1002A000737369676E65640A0D000000426C6164D7
:1002B00065207461736B20696E697469616C697A19
:1002C00065640A0D000000004C534D3644534C2029
:1002D000426C6164652070696E207265736F75721F
:1002E000636573206E6F7420617661696C61626C06
:1002F000650A0D004C534D3644534C20426C6164EA
:10030000652070696E207265736F75726365732006
:10031000616C6C6F63617465640A0D004C534D36FB
:1003200044534C2072657475726E65642049443A7A
:1003300020000000101C1800496E76616C69642072
:100340006368616E6E656C0A0D00000041444331C4
:1003500032207461736B20696E697469616C697AAB
:1003600065640A0D00000000416E74417373696793
:100370006E4368616E6E656C206572726F723A20B2
:100380006368616E6E656C206973206E6F74207592
:100390006E636F6E666967757265640A0D000000B2
:1003A000416E74556E737369676E4368616E6E65F6
:1003B0006C206572726F723A206368616E6E656C54
:1003C000206E6F7420636C6F7365640A0D0000000B
:1003D000416E744F70656E4368616E6E656C20652A
:1003E00072726F723A206368616E6E656C206E6F18
:1003F000742072656164790A0D000000416E744FCB
:1004000070656E5363616E6E696E674368616E6E90
:10041000656C206572726F723A206368616E6E65FA
:100420006C206E6F742072656164790A0D000000A3
:10043000416E74436C6F73654368616E6E656C20CA
:100440006572726F723A206368616E6E656C206EC1
:100450006F74206F70656E0A0D000000414E5420CD
:100460004150492072656164790A0D0042757474C7
:100470006F6E207461736B2072656164790A0D0080
:100480004C45442066756E6374696F6E73207265A7
:100490006164790A0D000000545749207472616E3E
:1004A000736D6974206D657373616765206F757412
:1004B000206F662073796E63210A0D00205457491E
:1004C000204E41434B2E204D657373616765206458
:1004D000656C657465642E0A0D0000005457492050
:1004E00052782054696D656F75742E204D65737355
:1004F0006167652064656C657465642E0A0D000093
:10050000545749205065726970686572616C205259
:10051000656164790A0D00000D0A535049206D652C
:10052000737361676520746F6F206C617267650A11
:100530000D00000053504920506572697068657263
:10054000616C2052656164790A0D0000496E766124
:100550006C69642053535020617474656D70740D20
:100560000A0000000D0A535350206D6573736167D4
:100570006520746F6F206C617267650A0D00000062
:10058000535350205065726970686572616C7320B6
:1005900052656164790A0D000A0D55415254206379
:1005A0006F756E746572206F7574206F6620737935
:1005B0006E630A0D0000000054696D657231206998
:1005C0006E697469616C697A65640A0D00000000E7
:1005D0000A0D44756D6D79210A0A0D000A0D4469F2
:1005E00073706C617920436170746F7563682076F5
:1005F000616C7565732000004E6F2076616C7565C7
:100600007320646973706C61796564206966204346
:100610006170746F756368206973204F46460A0DD8
:10062000000000000A0D53797374656D2074696DC4
:10063000652076696F6C6174696F6E207265706F8A
:100640007274696E672000000A0D4C656420546561
:10065000737420000A0A0D417661696C61626C65F1
:1006600020636F6D6D616E64733A0A0D00000000C7
:100670000A0A0D2A2A2A446562756720506173733D
:100680007468726F75676820656E61626C65642A54
:100690002A2A0A0A0D0000000A0A0D2A2A2A44659D
:1006A00062756720506173737468726F7567682034
:1006B00064697361626C65642A2A2A0A0A0D000063
:1006C0004E6F206661696C6564207461736B732E74
:1006D0000A0D00000A0D496E697469616C697A61DE
:1006E00074696F6E20636F6D706C6574652E205435
:1006F00079706520656E2B63303020666F722064E0
:1007000065627567206D656E752E20204661696C87
:100710006564207461736B733A0A0D004669726DEB
:10072000776172652076657273696F6E3A20312E3B
:1007300030300A0A0D00000053686F77206465624C
:10074000756720636F6D6D616E64206C69737420D2
:10075000202020202020202000000000546F676708
:100760006C65204C45442074657374202020202043
:1007700020202020202020202020202000000000F9
:10078000546F67676C652073797374656D20746945
:100790006D696E67207761726E696E672020202018
:1007A00000000000546F67676C6520436170746FD0
:1007B0007563682076616C756520646973706C611F
:1007C000792020200000000044756D6D79342020D0
:1007D0002020202020202020202020202020202019
:1007E00020202020202020200000000044756D6D76
:1007F000793520202020202020202020202020208B
:100800002020202020202020202020200000000068
:1008100044756D6D79362020202020202020202056
:1008200020202020202020202020202020202020C8
:100830000000000044756D6D7937202020202020B5
:1008400020202020202020202020202020202020A8
:1008500020202020000000000A0D2A2A2A20316DC5
:10086000732074696D696E672076696F6C61746955
:100870006F6E3A20000000004C696272617279204C
:1008800051546F75636820004C69627261727920FF
:10089000514D6174726978200000000073757070AA
:1008A0006F727473206F6E6C79206B657973200D95
:1008B0000A000000737570706F727473206B657935
:1008C0007320616E6420726F746F72732F736C6922
:1008D000646572732E20000056657273696F6E2016
:1008E00000000000496E697469616C697A696E671D
:1008F00020436170546F7563682E2E2E0A0D000020
:10090000436170546F756368206C696272617279BB
:1009100020646964206E6F74207665726966790A56
:100920000D0000000A0D436170746F7563682073D9
:10093000656E736F7220726561642074696D656F96
:1009400075740A0D00000000436170746F75636870
:100950002028483A562920003A00000008000000EC
:10096000100000000008000000100000002000003F
:1009700000400000008000000000010000020000B4
:100980000004000080000000800000000000000063
:100990000000000000000000000000000000000057
:1009A0000000000000000000000000000100000046
:1009B0000100000000000000000000000000000036
:1009C0000000000000000000000000000000000027
:1009D00000000000704770B584B064211D4803F02A
:1009E00095FE08B904B070BD1B4B1B681B4E3361EC
:1009F0000E23324620216B2002F070FC0025184C9B
:100A000014E0302204F8012B0133DBB28B42F8D31F
:100A1000002301A905E011F8012B04F8012B013393
:100A2000DBB28342F7D301340135EDB2062D0CD889
:100A300033787078023601A943EA002003F0B4FE4F
:100A4000C0F10501C9B20023E0E7054803F082FFC9
:100A5000C8E700BF380500209823002028050020A3
:100A60000000002010B582B000238DF807302F4A17
:100A70001268ADF80420120C8DF806202C4A137071
:100A800053709370D370137153719371D371137248
:100A900053729372D3721373537301210220FFF7C1
:100AA00048FB044601210320FFF743FB0444E4B262
:100AB00003210820FFF73DFB0444E4B20321092091
:100AC000FFF737FB204410F0FF0412D0194803F061
:100AD00041FF01230DF107020F216B2002F0FEFB05
:100AE0009DF807306A2B08D0114B134A5A6102B0A7
:100AF00010BD124803F02EFFEBE7114803F02AFF68
:100B00009DF8070004F0BEF904F05EF9002301AA85
:100B100003216B2002F026FC002CE5D1094B1A685A
:100B2000034B1A61084A5A61E1E700BF3403080029
:100B300028050020C8020800D5090800F4020800B2
:100B40001C03080098230020D709080008B5024BB1
:100B50005B69984708BD00BF2805002090FAA0F007
:100B6000704700000248D0F800D00248004700005B
:100B700000000800890B0800072803DBA0F107002C
:100B80000338FDD5704700BF08B50D4A4FF0E0238C
:100B9000C3F8082D0B480C4A121A0C4907F0A6FF9F
:100BA0000B480C4A121A002107F016FF04F0CCFA89
:100BB0000949CA6802F4E062084B1343CB6008BDE0
:100BC000000008000000002014050020A88B080089
:100BD00014050020002B002000ED00E00400FA05C1
:100BE00003460A4A10680A4A121A9A4207DB094A5F
:100BF000121A9A4203DC0344044A13607047064BFE
:100C00000C221A604FF0FF30704700BF2C0000200C
:100C10000040082000000820F42A00207047704798
:100C200010B500231C4601E00133DBB2012B05D8CF
:100C3000074AD25C8242F7D10124F5E71CB1054B8B
:100C400043F8201010BD044803F084FEFAE700BF0B
:100C50009C0D0800440500203803080002460A4B9A
:100C600093F8200000B97047002183F82010012379
:100C700003FA02F0054A10615062116841F0020166
:100C800011601846EFE700BF4405002000800A40CD
:100C900010B588B00DF1040C1A4C0FCCACE80F0065
:100CA00094E80700ACE803008CF80020164B174AC4
:100CB0005A60FF225A6140F201125A66144A9A663B
:100CC000144A9A62002305E0134A144942F823109B
:100CD0000133DBB2072BF7D90F4C012384F8203006
:100CE0000F4B4FF08062C3F880211A6001A803F017
:100CF00031FE0C4A136843F0200313600A4B636211
:100D000008B010BD4C03080000800A400017040F13
:100D100001000400FFFF0F00440500201D0C080027
:100D200000E100E0902300201F0C080008B5024BF2
:100D30005B6A984708BD00BF4405002038B5002411
:100D4000012C19D8114BD969114B1A5D012393401D
:100D5000194202D10134E4B2F2E70C4D02F10C0366
:100D600055F823000B4B53F8223080B29847084BBC
:100D70001A5D012393406B61064B012283F820200A
:100D8000054B4FF08062C3F8802138BD00800A40D7
:100D90009C0D08004405002000E100E00203000073
:100DA00080B483B000AF00237B6002E07B68013336
:100DB0007B607B68B3F5967FF8D30B4B4FF0807266
:100DC0005A6300233B6002E03B6801333B603B68B1
:100DD000132BF9D9044B4FF080721A6300BF0C3704
:100DE000BD4680BC704700BF000E0E4072B6064B79
:100DF0001A1D1A60C3F80421C3F80821002283F8E1
:100E00000C2162B6704700BF70050020084BD3F874
:100E100004210132C3F8042103F582739A4200D001
:100E20007047A3F582731A1DC3F80421F8E700BFC9
:100E300070050020084BD3F808210132C3F80821BF
:100E400003F582739A4200D07047A3F582731A1D8E
:100E5000C3F80821F8E700BF70050020704738B5D7
:100E60000C4603788578092B38D0093BDBB2082B78
:100E700012D8C37A90F90B20002A19DBFF2296467C
:100E80004FF6FF714FF0000C13F0400F1AD00CF129
:100E90000D0C10F90CC017E0154803F05BFD4FF086
:100EA000FF3CFF2296464FF6FF71002318460CE0E8
:100EB000017B427B41EA022190F80EE0C27B4FF0B9
:100EC000040CE1E74FF0FF3C012063702570618066
:100ED00084F804E0627184F806C038BD4FF0FF3C2E
:100EE000FF2296464FF6FF7100231846EDE700BF3C
:100EF000841D08002DE970418DB080460D461646D0
:100F00000DF1040C2E4C0FCCACE80F000FCCACE86C
:100F10000F0094E80700ACE803002CF8022B120C39
:100F20008CF800201C2007F099FC10B10446002327
:100F300009E001A803F00EFD002039E0E95CE218A9
:100F400091710133DBB2072BF8D91E4B1B6823606C
:100F500084F804803378A373738823823379A3746D
:100F60007379E3747378E37396F90630237500237D
:100F7000A361154BD3F8101109B100230BE0C3F89E
:100F80001041D3F814210132C3F8142101200FE0DD
:100F90000133DBB211468A69002AF9D11F2B0AD826
:100FA0008C61094AD2F814310133C2F8143101209E
:100FB0000DB0BDE8708101A803F0CCFC0020F7E77C
:100FC000A81D0800982300207005002000B585B0FA
:100FD000FF238DF8083081788DF80910C2788DF8DC
:100FE0000A2002798DF80B208DF80C30104A92F807
:100FF00018018DF80D0092F819018DF80E0092F885
:101000001A218DF80F208DF80010ADF802308DF800
:1010100004308DF805308DF806308DF801306A46C1
:1010200002A90220FFF766FF05B05DF804FB00BFD0
:101030007005002008B5054BD3F81C0120B182696A
:10104000C3F81C2107F012FC08BD00BF700500208A
:1010500030B589B0AC4B93F80C311BB90124204654
:1010600009B030BDA84CD4F820210132C4F82021A9
:10107000013B84F80C31FFF7DDFED4F808311D7810
:10108000112D00F2A38100240CE09F4BD3F808310E
:101090001A7804F120036B4403F8142CFFF7CAFEFE
:1010A0000134E4B2EB1C9C42EFDB9DF80E509DF83E
:1010B0000D30522B1DD83E2BC0F07F813E3B142BB0
:1010C00000F27B81DFE813F06301790121007901EF
:1010D0007901790179017901790179017901790140
:1010E0007901790179017901570157017901790174
:1010F00084016F2B40F06181834AD2F8C83143F4F8
:101100008033C2F8C8310024A9E79DF80F000128F8
:1011100000F0A8807C4B83F8245183F825019DF8CA
:10112000102083F82621A0F141031A2B68D8DFE8AC
:1011300003F04B67676767676767676711336767C0
:101140006767676767676767676767670E006F4806
:1011500003F000FC05F130036D48037303F0FAFB64
:101160009DF8103083B9684A05EB850102EB8101D7
:1011700091F83B3143F0040081F83B0123F0020376
:1011800043F0040381F83B319DF81040002C5DD101
:10119000604803F0DFFB62E75B4B05EB850203EB86
:1011A000820292F83B2105EB850103EB810322F0DB
:1011B000080283F83B216BB23033554880F8203069
:1011C000143003F0C7FBDFE76BB23033504880F8D0
:1011D00038302C3003F0BEFB9DF81030002BD3D1FB
:1011E000494B05EB850203EB820292F83B2105EBAC
:1011F000850503EB850322F0010283F83B21C3E759
:101200006BB23033424C84F85030000903F0BDFA21
:1012100084F85C009DF80F0000F00F0003F0B5FAB1
:1012200084F85D009DF81000000903F0AEFA84F820
:1012300068009DF8100000F00F0003F0A6FA84F893
:10124000690004F1440003F085FB9DE7324803F098
:1012500081FB2D4AD2F8C83143F00203C2F8C831ED
:101260000024FCE69DF81040082C75D8DFE804F057
:10127000055B092774375660220003A8FFF7A6FE16
:10128000EDE6214A92F81A310133DBB282F81A31C5
:101290005BB992F819310133DBB282F8193123B905
:1012A00092F81831013382F8183103A8FFF78EFE47
:1012B0000024D4E603A8FFF789FE0024CFE605EB5F
:1012C0008505114B03EB850393F82931102B01D0D1
:1012D0000024C4E603A8FFF779FE0024BFE60A4B0A
:1012E00005EB850203EB820292F83B2105EB8505B5
:1012F00003EB850342F0100283F83B2103A8FFF7BC
:1013000065FE0024ABE600BF70050020D41D080078
:10131000300000209C000020A400002003A8FFF75C
:1013200055FE00249BE603A8FFF750FE002496E636
:10133000284803F00FFB284B05EB850203EB8202E4
:1013400092F83B2105EB850503EB850322F00402AF
:1013500083F83B21002482E6204603F093FD1F48DA
:1013600003F0F8FA1C4AD2F8C83143F00403C2F87B
:10137000C831002473E601A903A8FFF770FD01AA94
:101380000DF10F010120FFF7B5FD002467E60023F2
:10139000092B0BD803F122026A4412F8141C0E4ADE
:1013A0001A4482F8CC110133DBB2F1E70C4A13681E
:1013B00043F040031360002451E6074AD2F8C831D5
:1013C00043F00803C2F8C831002448E6012446E689
:1013D000002444E6E01D080070050020F41D08000C
:1013E00090230020024690F900C00CF1020C5FFA35
:1013F0008CFC0023A52004E012F8011B48400133B7
:10140000DBB26345F8D3704738B504461C2007F0BB
:1014100025FA70B10546224AD2F8D8310133C2F814
:10142000D83194F900C00CF1030C5FFA8CFC002356
:1014300009E01C4803F08EFA00202AE0E15CEA187B
:1014400011710133DBB26345F8D3174B1B682B6076
:101450000023AB61124BD3F81C1109B100230BE040
:10146000C3F81C51D3F8DC210132C3F8DC21012080
:101470000FE00133DBB211468A69002AF9D11F2B34
:1014800008D88D61064AD2F8DC310133C2F8DC316C
:10149000012038BD034803F05DFA0020F9E700BFE2
:1014A00070050020AC00002098230020084BD3F8E2
:1014B000100160B110B58369054CC4F8103107F014
:1014C000D5F9D4F81431013BC4F8143110BD70477C
:1014D0007005002008B5024BD3F8E031984708BDED
:1014E0007005002008B51E4BD3F8E40101F072FB33
:1014F000032804D004282AD11A4803F02BFAFFF756
:1015000099FD174B0022C3F8E421D3F8C82122F03B
:101510000072C3F8C82103E00133114AC2F8E83170
:10152000114B1B6813F0010F06D00D4BD3F8E831B7
:1015300042F20F729342EFD9094BD3F8EC2142F2F9
:1015400010739A4206D8064B084AC3F8E02108BD3A
:10155000FFF726FC044B1B6813F0010FF8D1F2E7EC
:1015600070050020141E080010210020F519080045
:101570002DE970418DB07B4C0DF11C0C04F1B00EC7
:10158000BEE80F00ACE80F00DEF800308CF8003049
:101590000DF1040E04F1C40CBCE80F00AEE80F001E
:1015A0009CE803008EE803006F4B1B6813F0010FEB
:1015B00000F0D5806D4BD3F8F0410022C3F8EC2148
:1015C000D3F8C83113F0806F21D023F08063674ACD
:1015D000C2F8C831013C654BD3F8EC2142F21073DC
:1015E0009A4228D8604A136823F0040313605F4BC3
:1015F000D3F804311B78A42B23D05C4AD2F8FC31F9
:101600000133C2F8FC3101A803F0A4F990E0FFF720
:10161000C7FB03E00133554AC2F8EC31524B1B685B
:1016200013F0040FD7D1514BD3F8EC3142F20F72C3
:101630009342EFD9CFE7FFF7D9FB07A803F08AF968
:101640008DE04A4AD2F8C83143F08073C2F8C831FD
:10165000FFF7A6FB03E00133444AC2F8EC31424BEA
:101660001B6813F0010F06D0404BD3F8EC3142F267
:101670000F729342EFD93D4BD3F8C82122F080720C
:10168000C3F8C82138490A6822F004020A60D3F876
:10169000EC2142F20F739A4206D9344AD2F8F8315B
:1016A0000133C2F8F831AEE7DFF8C080D8F8F06156
:1016B000361BD8F804311D78FFF7A8FBD8F80431A1
:1016C00093F900300233DCB2A31CB34205D0D8F842
:1016D000C83143F00103C8F8C831244BD3F80431B2
:1016E0001B785D40FFF792FB631E13F0FF04F4D1FB
:1016F0001E4BD3F804311A78AA420DD11B4B93F834
:101700000C21013283F80C21D3F8F4210132C3F803
:10171000F421FFF77BFB22E0144AC2F80831FFF7FF
:1017200089FBF6E70133114AC2F8EC31FFF738FBC9
:101730000D4B1B6813F0010F06D00C4BD3F8EC31A6
:1017400042F20F729342EDD9084B1A68C3F8042194
:10175000C3F80821044A136823F0060313600DB090
:10176000BDE87081841D0800102100207005002054
:1017700010B5064CD4F800320133C4F80032FFF73C
:10178000F7FE034BC4F8E03110BD00BF7005002028
:10179000F519080070B582B005462A4B1B68019305
:1017A000002405E04FF47A7101A802F0AFFF04466F
:1017B000254B1B6813F0010F01D0002CF2D02CB187
:1017C0000124FFF745FC204602B070BD1F4ED6F83D
:1017D000C83123F00073C6F8C831FFF72BFC002393
:1017E000C6F8E431174B1B68019305E04FF47A719A
:1017F00001A802F08BFF0446134B1B6813F0010F86
:1018000001D1002CF2D00CB10124DAE7FFF7B0FED1
:101810000E4B93F80C319BB10C4BD3F80821937805
:10182000402B03D0AB42CCD00124CAE71379AB42A2
:1018300001D00124C5E75479002CC2D00124C0E7AF
:101840000124BEE79823002010210020700500200D
:1018500030B59BB00446634D0DF1440C05F1DC0E30
:10186000BEE80F00ACE80F00BEE80F00ACE80F00C8
:10187000DEF800308CF800300DF12C0C05F5807E80
:10188000BEE80F00ACE80F009EE803004CF8040B24
:101890008CF800100DF1180C05F58C7EBEE80F00D9
:1018A000ACE80F00DEF80030ACF800300DF1040EAB
:1018B00005F5967CBCE80F00AEE80F00DCF80030C0
:1018C0008EF80030484BD3F8C83113F0407F08D170
:1018D000454B0022C3F8EC21444B4FF400025A63FD
:1018E00008E011A803F036F8002021E001333E4A59
:1018F000C2F8EC313E4B1B6813F0010F06D13A4B96
:10190000D3F8EC3142F20F729342EFD9364BD3F851
:10191000EC2142F210739A4202D8FFF741FA0DE02F
:10192000324B4FF400021A630BA803F013F80020A7
:101930001BB030BD01332C4AC2F8EC312C4B1B6874
:1019400013F0040F06D1284BD3F8EC3142F20F729A
:101950009342EFD9254B4FF400021A63224BD3F880
:10196000EC2142F210739A4215D81F4BD3F8043180
:101970001D78A42D14D0FFF749FAFFF75BFA1C4A33
:10198000136823F004031360A52D12D001A802F000
:10199000E1FF0020CCE70BA802F0DCFF0020C7E746
:1019A000114AD2F8C83143F08063C2F8C831002030
:1019B000BEE70D4DD5F8C83143F00073C5F8C83106
:1019C000217822460331D5F8040202F07BFBC5F8EA
:1019D000E40108B10120ABE706A802F0BBFF00203C
:1019E000A6E700BF841D080070050020000E0E4011
:1019F0001021002070B5264BB3F8C8315BB9FFF752
:101A000027FB244B1B6813F0010F26D0204B224AE2
:101A1000C3F8E02170BD214802F09CFF0024254658
:101A2000012604E076000135EDB20134E4B2032C66
:101A30000CD8174BD3F8C8311E42F3D005EB850004
:101A4000174B03EB800002F085FFEBE7104AB2F87A
:101A5000CA311B04C2F8C831D1E70D4BD3F8E431C9
:101A6000002BD7D10A4BD3F81C010028D2D0043068
:101A7000FFF7EEFE40B10B4B1A68054BC3F8E821A7
:101A8000094AC3F8E021C5E7084802F063FFC1E74F
:101A9000700500201021002071170800D4000020DC
:101AA000E400002098230020E5140800C41E08006C
:101AB00070B582B02E4B1A1D1A60C3F80421C3F80A
:101AC0000821002283F80C212A4B1B6801932A4B22
:101AD0004FF400125A634FF400021A634FF0807201
:101AE0001A63642101A802F011FE0028F9D0224BEC
:101AF0004FF400121A631F4B1B6801934FF47A7165
:101B000001A802F003FE0028F8D01A4B1B680193CD
:101B100000241A4B1B6813F0010F0AD14CB94FF483
:101B20007A7101A802F0F2FD0028F2D00134E4B28B
:101B3000EFE7BCB9FFF71CFDFFF78AFA104E06F578
:101B400082752846FFF74EFC86F808012846FFF705
:101B50007FFE4FF47A713E20FFF71CFE044414F020
:101B6000FF0F02D0074802F0F5FE02B070BD00BFC3
:101B70007005002098230020000E0E401021002048
:101B800030000020DC1E080010B5594BDB6B13F051
:101B9000010F16D1574A136843F0807313605648FB
:101BA00002F0D8FE55494FF030700860504B4FF0AE
:101BB000F0721A6048615A61514B524AC3F8E021F1
:101BC00010BD4B4B4FF400121A614F4802F0C2FE99
:101BD0004B4A0023C2F81031C2F81C319C4610E079
:101BE00000EB8001464A02EB81021A44002182F890
:101BF0002B110133DBB2072BF2D90CF1010C5FFA88
:101C00008CFCBCF1070F25D860460CEB8C033C4ADA
:101C100002EB830282F828C1102382F829310023C5
:101C200082F82A3182F83331202182F834114FF0C2
:101C3000010E82F835E182F836E182F8373182F818
:101C40003811372182F83911042182F83A1182F8CB
:101C50003B31D0E72A4C042384F80832244BC4F8E3
:101C60000C324FF48003C4F81032012384F814328C
:101C7000032384F81532254BC4F81832244BC4F8DA
:101C80001C32231DC4F82032C4F824424FF4807360
:101C9000A4F8283204F5027002F01AF8C4F804021D
:101CA0001C4B00221A60FFF703FF1B4B1B6813F04D
:101CB000400F15D0194802F04DFE194802F04AFEB7
:101CC00004F5E67002F046FE03F07EF8D4F8C83161
:101CD00023F48033C4F8C831124BC4F8E0316FE705
:101CE000114802F037FE064B064AC3F8E02167E7C9
:101CF000000E0E408C2300203C010020000C0E4002
:101D0000700500205D0E0800780100202D1D0800E0
:101D1000451D080010210020902300209C00002079
:101D2000F01E0800F51908009001002008B5044ACB
:101D3000D2F82C320133C2F82C32FFF731F808BD4B
:101D40007005002008B50E4BD3F8F0210132C3F81E
:101D5000F0211A6801321A6003F582739A4206D0A4
:101D6000074BD3F8C83113F0807F05D108BDA3F528
:101D700082731A1D1A60F3E7FFF712F8F6E700BF47
:101D8000700500200A0D556E657870656374656492
:101D900020414E54206D6573736167652073697AC5
:101DA000650A0A0D000000000A0D4E6F2073706175
:101DB000636520696E20416E74517565756541706B
:101DC000706C69636174696F6E4D6573736167658B
:101DD0000A0D00005363616E6E696E67200000009B
:101DE0004368616E6E656C20636C6F7365640A0D89
:101DF000000000003A20756E657870656374656454
:101E0000206368616E6E656C206576656E740A0D80
:101E1000000000000A0D5472616E736D6974206DCC
:101E20006573736167652074696D656F75740A0DFC
:101E300000000000416E7452783A2074696D656F3D
:101E400075740A0D00000000416E7452783A206DDE
:101E5000657373616765206661696C65640A0D006E
:101E6000416E7454783A206D736720616C726561BD
:101E7000647920696E2070726F67726573730A0DE2
:101E800000000000416E7454783A2053454E20748F
:101E9000696D656F75740A0D00000000416E745421
:101EA000783A204E6F20746F6B656E0A0D0000004B
:101EB000416E7454783A204E6F2053594E430A0DA8
:101EC000000000000A0D414E54207472616E736D63
:101ED0006974206661696C65640A0D000A0D414EE3
:101EE00054206661696C656420626F6F740A0D002E
:101EF000414E542076657273696F6E3A200000007F
:101F00007047704710B52F4B1B786BB12E4B5A782A
:101F10002C4B9B789A4213D042F210712B4802F05E
:101F2000F5FB002843D110BD264C6278284B53F8AE
:101F300022004378A370FFF767FA01232370E5E7D7
:101F4000214B9B784BBB1F4A53780133DBB2537054
:101F5000082B03D01B4B00221A70DDE71A4C94F9B2
:101F6000003030331B48037302F0F4FC1A4802F0CF
:101F7000F1FC2378194A03EB830102EB8101C97C50
:101F800003EB830302EB830241F00103D3740D4B97
:101F900000225A70124A5A60DCE70E4802F0DAFC5E
:101FA000104802F0D7FC074B0D4A5A60D2E70948A7
:101FB00002F0D0FC0B4802F0CDFC024B084A5A60FC
:101FC000B1E700BFA007002094060020A80700206A
:101FD00038240800240200209C00002098060020DD
:101FE000011F0800A400002000EB8000094B03EB58
:101FF0008003DB7C13F0010006D013F0080F06D13C
:1020000013F0040F01D10120704703207047042012
:10201000704700BF9806002070B505460078FFF7AE
:10202000E3FF48B90446534E3046FFF7DBF9307101
:10203000AA78514B9A7013E0504802F08BFC0020B4
:1020400097E0E31C2A19D1784B4AD1542B7803EB43
:1020500083024B4B03EB82032344D9700134E4B277
:10206000072CEED9444C2046FFF7BCF9E0722B78E0
:10207000444EB3706A78F2702B78414C03EB8303C3
:1020800004EB83035A70AA7832712B7803EB830335
:1020900004EB83039A703046FFF7A4F970712B7834
:1020A000394EB370EA7AF2702B7803EB830304EBBA
:1020B0008303DA722A7B32712B7803EB830304EB00
:1020C00083031A736A7B72712B7803EB830304EB2F
:1020D00083035A73AA7BB2712B7803EB830304EB5F
:1020E00083039A733046FFF77DF9F0712B78274E02
:1020F000B370EA7BF2702B7803EB830304EB83036A
:10210000DA732A7C32712B7803EB830304EB8303AD
:102110001A743046FFF766F970712B781C4EB37055
:102120006A7CF2702B7803EB830304EB83035A740D
:102130003046FFF757F93071AA7C164EF2702B78B3
:1021400003EB830304EB8304A2743046FFF74AF9E0
:1021500030712B78104CA3700423E3702046FFF7F6
:1021600041F920710D4B1A680D4B9A600D4A5A6067
:10217000012070BDC8010020000200206803080093
:1021800098060020F8010020F0010020E80100205E
:10219000E0010020D8010020D00100209823002079
:1021A000A0070020051F080010B582B0044644F2C5
:1021B00001130193FFF718FF012805D0084802F02A
:1021C000C9FB002002B010BD8DF8064001A8FFF742
:1021D00009F98DF8070001A8FFF716F9F2E700BF2B
:1021E000A003080010B582B0044644F60133019301
:1021F000FFF7FAFE012819D10CB18DF8064001A8AD
:10220000FFF7F0F88DF807000B4B04EB840203EBAB
:102210008202D27C04EB840403EB840342F00202CA
:10222000DA7401A8FFF7F0F802B010BD034802F01D
:1022300091FB0020F8E700BF98060020D0030800BB
:1022400000B583B045F6013301930020FFF7CCFEC3
:10225000012806D00A4802F07DFB002003B05DF89B
:1022600004FB01A8FFF7BEF88DF80700054AD37CF0
:1022700043F00203D37401A8FFF7C6F8EEE700BFEE
:10228000FC0308009806002010B582B0044644F60E
:1022900001430193FFF7A8FE032805D00E4802F082
:1022A00059FB002002B010BD8DF8064001A8FFF7D1
:1022B00099F88DF80700094B04EB840203EB8202C6
:1022C000D27C04EB840403EB840342F00802DA744A
:1022D00001A8FFF799F8E5E7300408009806002008
:1022E00010B50B4B9870002307E0DA1C11F803C0FF
:1022F000074800F802C00133DBB2072BF5D9044CC4
:102300002046FFF76FF8E0722046FFF77DF810BD1A
:10231000BC01002010B50B4B9870002307E0DA1CBD
:1023200011F803C0074800F802C00133DBB2072BE5
:10233000F5D9044C2046FFF755F8E0722046FFF728
:1023400063F810BDB001002008B5164B186830B313
:102350000268154BDA6002791A7400F1060C00234A
:1023600006E01CF80310104A1A4411750133DBB261
:10237000072BF6D9827B0C4B1A77C27B5A77028ADD
:10238000DA83827C83F82020C27C83F8212090F9B4
:10239000142083F82220FFF789F8012008BD0020CF
:1023A000FCE700BF80060020A0070020002808DB13
:1023B0002B230B7018B920230B70C0B208E0C0B2F9
:1023C00003E02D230B704042C0B2632800D9632084
:1023D000064BA3FB0023DB0803F130024A7003EB3A
:1023E0008303A0EB4300303088707047CDCCCCCC59
:1023F00008B5084B1B6813F0400F03D1064B074A82
:102400005A6008BD064802F0A5FA034B054A5A6017
:10241000F7E700BF90230020A0070020031F08005B
:102420005C040800011F080008B5024B5B68984770
:1024300008BD00BFA007002000020020C801002046
:10244000F8010020F0010020E8010020E001002058
:10245000D8010020D00100200023012B0BD803EB72
:1024600043018A0004498A5C12B90133DBB2F4E704
:10247000024A8A6170477047C8070020812408001B
:10248000F8B53D4B3D4A9A61002425E004EB440237
:10249000394B03EB82030022DA7005EB4502364B21
:1024A00003EB8203DA789B789A4207D005EB45016B
:1024B000314B03EB81039A70012A53D005EB45039E
:1024C0009B002D4A0021D1542D4B53F835202D4B24
:1024D00043F826200134E4B2012C4CD82546284B81
:1024E00003EBC4031E79284F04EB4403224A12F87D
:1024F0002330002BEED0254B936104EB440302EB19
:1025000083000A21043002F001F90028E2D01C4BBC
:1025100003EBC4035B7973B957F82620184B53F8C3
:1025200034309343B2D004EB4402134B03EB8203E9
:102530000122DA70B1E757F82620114B53F83430F6
:102540001A4207D004EB44020B4B03EB8203012237
:10255000DA70A2E704EB4402074B03EB820300228C
:10256000DA709AE7044B03EB810301225A70084AA0
:1025700012689A60A2E7F8BDC80700205924080035
:1025800070610800400C0E403C0C0E408124080095
:102590009823002000EB4000034B03EB8003987866
:1025A000012800D000207047C807002000EB400041
:1025B000034B03EB80035878012800D000207047BC
:1025C000C807002000EB4000024B03EB8003002211
:1025D0005A707047C807002010B500EB4002094B45
:1025E00003EB82039C78012C02D00024204610BD0E
:1025F000044B03EB8200043002F088F80028F5D188
:10260000F3E700BFC807002008B5002315E01C4908
:1026100003EB43024FEA820C01EB0C00002201F8AD
:102620000C2042708270C270826003EB430C4FEA50
:102630008C0001444A600133DBB2012BE7D9114A17
:102640004FF400331364104B01211964D26CDB6C1E
:102650000E4B4FF48061C3F880114FF40062C3F851
:10266000802119601A60064B094A9A61094A136869
:1026700043F002031360084802F06CF908BD00BF84
:10268000C8070020000C0E40000E0E4000E100E0E4
:1026900059240800902300206C04080008B5024B60
:1026A0009B69984708BD00BFC8070020002301E0D0
:1026B0000133DBB2012B0BD8104A52F8332082428F
:1026C000F6D10E4A02EBC30212798A42F0D100E041
:1026D0000223022B10D00A494A6C02434A64094A79
:1026E00003EB4301012002F821000749096803EBCD
:1026F000430302EB83025160704700BF7061080022
:10270000000C0E40C807002098230020FEE7FEE7DB
:10271000FEE7FEE7FEE7FEE7FEE7FEE7FEE7FEE791
:10272000FEE7FEE7FEE7FEE7FEE7FEE7FEE7FEE781
:10273000FEE7FEE7FEE7FEE7FEE7FEE7FEE7FEE771
:10274000FEE7FEE7FEE7FEE7FEE7FEE7FEE7FEE761
:10275000FEE7FEE7FEE7FEE7FEE7FEE700230FE009
:102760005AB203F01F005209012181400D4802F1C5
:10277000200C40F82C10603240F822100133DBB2FC
:102780001D2BEDD900230AE09A0002F1604202F508
:102790006442054951F8231011600133DBB2072B65
:1027A000F2D9704700E100E0B82808000B4A13682E
:1027B00023F0804313600A4B1A6801321A601A68CA
:1027C000084BA3FB02139B094FF47A7101FB1323FF
:1027D0001BB9054A13680133136070478C2300202E
:1027E00098230020D34D62109423002070B50D4B28
:1027F000DE6C16F4003611D10B4B4FF48062C3F837
:10280000802170BD6D000134E4B21F2CF4D8354234
:10281000F8D000212846FFF749FFF3E700240125FF
:10282000F3E700BF000C0E4000E100E070B50D4B77
:10283000DE6C16F0010611D10B4B4FF40062C3F8A9
:10284000802170BD6D000134E4B21F2CF4D83542F4
:10285000F8D080212846FFF729FFF3E7002401255F
:10286000F3E700BF000E0E4000E100E008B50820CD
:1028700000F058F8092000F055F80A2000F052F84E
:102880000B2000F04FF8042000F04CF8052000F079
:1028900049F8062000F046F8072000F043F8012030
:1028A00000F040F8022000F03DF8032000F03AF874
:1028B000002000F011F8FEE7F000F0F000F0F0F07A
:1028C000F0F05050503030F0F0F020F020F00040A8
:1028D00040F0F0F0F01000000E4B03EBC0035B790A
:1028E000012B0FD00B4B03EBC0031A790A4B03EB00
:1028F0008203084A52F830201A60084B002203F87D
:1029000030207047034B03EBC0031A79044B03EBF1
:102910008203EEE780610800340C0E40E4070020DB
:10292000300C0E400E4B03EBC0035B79012B0FD034
:102930000B4B03EBC0031A790A4B03EB8203084AE3
:1029400052F830201A60084B002203F830207047FC
:10295000034B03EBC0031A79044B03EB8203EEE74E
:1029600080610800300C0E40E4070020340C0E405B
:1029700038B5002406E0314B13F83530022B24D053
:102980000134E4B20C2C57D825462C4B13F83430C4
:10299000012BF0D1294A02EBC4029388013B9BB280
:1029A0009380002BE7D1264800EBC4031979254A10
:1029B00052F8213050F83400434042F821301F4B88
:1029C00003EBC4035A889A80D5E71C4B03EBC5037D
:1029D0005B88BBB1142B1DD0184A02EBC50293884B
:1029E000013B9BB2938083B99379012B16D020468B
:1029F000FFF772FF114B03EBC5035A889A8001223F
:102A00009A7102E02046FFF78DFF0C4B022203F87B
:102A10003520B5E72046FFF75FFFF6E72046FFF7D2
:102A200081FF064B03EBC503B3F90220C2F1140288
:102A30009A8000229A71E8E738BD00BFE4070020C1
:102A400080610800380C0E4010B4094C04EBC00340
:102A50001979084A52F8213054F83040634042F85E
:102A60002130054B002203F8302010BC704700BF16
:102A700080610800380C0E40E4070020044B01225E
:102A800003F8302003EBC00041808180704700BF15
:102A9000E4070020054B022203F8302003EBC000BE
:102AA0004180818001238371704700BFE4070020CB
:102AB00030B583B0002405E014212046FFF7EAFF7B
:102AC0000134E4B20C2CF7D9142524E0264B1B6802
:102AD0000193012101A801F019FE0028F9D0FFF7A8
:102AE00047FF013CA4B2002CF0D1142D01D00023EB
:102AF0000DE0C82101A801F009FE0028F9D0F6E791
:102B0000691E1A4A02EBC30251800133DBB20C2B5F
:102B1000F6D9013DEDB20DB11424E4E7FFF728FF2B
:102B2000C82101A801F0F2FD0028F9D00AE00F4BFE
:102B3000002203F8352003EBC5035A809A809A716E
:102B40000135EDB20C2DF2D90C20FFF7C5FE084A75
:102B5000136843F001031360064801F0FBFE034BCA
:102B6000054A9A6603B030BD98230020E407002090
:102B700090230020800408007129080008B5024B4A
:102B80009B6E984708BD00BFE4070020094A136800
:102B90001860012119710849096899600C331360A4
:102BA00002F54172934200D07047A2F541731A1D9D
:102BB0001A60F9E75008002098230020044A13689F
:102BC000013B13601BB9134642F210721A60704742
:102BD0003C0200200C4B1A68824204D00B4A9342FC
:102BE00001D00C33F7E7094A93420BD01879C21E83
:102BF000D2B2022A07D800221A601A71044A126857
:102C00009A607047FF20704754080020540B002042
:102C10009823002000B5264B4FF0000C83F804C326
:102C20000122C3F8082310E000EBC0010B010833B8
:102C300020490B44043300219954013292B27F2A77
:102C4000F2D90CF1010C5FFA8CFCBCF11F0F0FD80C
:102C5000604618490CEBCC031A018B184FF0010E9B
:102C600001F802E000225A609A60C3F88C20E6E77F
:102C700000230FE00E4903EB430082000A440020CA
:102C80005060107203EB430C4FEA8C021144C86091
:102C90000133DBB23F2BEDD9054B1A1D1A60002220
:102CA000C3F80C23044AC3F810235DF804FB00BFEB
:102CB00050080020640B0020BD2B080008B5024B13
:102CC000D3F81033984708BD500800202DE9F04193
:102CD00006460846002976D01446C1F3C71211F003
:102CE0007F0F01D00132D2B2384B93F80433134432
:102CF000202B01DC002547E0344AD2F80C3343F0A6
:102D00000103C2F80C3300205DE0304AD2F80C33E6
:102D100023F00203C2F80C334AE090331A78002AF9
:102D2000FBD01D46002205F8042B80280BD9A0F10A
:102D300080078020254AD2F808235A609860002135
:102D4000C3F88C1008E00027F4E703F10C0C14F82A
:102D5000012B0CF8012001319A688A42F5D872B62D
:102D600033683BBB356062B6DFF86080D8F8080393
:102D7000FFF70CFFD8F808330133C8F8083313B94C
:102D80000122C8F808233846E0B172B60F4B93F819
:102D90000423013283F8042362B693F804331C2B16
:102DA000B3D90A4AD2F80C3343F00203C2F80C3309
:102DB000074BB3E71A46D3F88830002BFAD1C2F894
:102DC0008850D0E72868BDE8F08100BF5008002097
:102DD000640B0020016809B1134B08E0134AD2F8D4
:102DE0000C3343F00403C2F80C33704790331A1DC0
:102DF000914202D00E4A9342F8D10D4A93420BD031
:102E0000D1F88820026001221A70084A92F804332F
:102E1000013B82F804337047044AD2F80C3343F084
:102E20000803C2F80C337047640B002050080020E0
:102E3000641D0020064B1A68824204D0054A934262
:102E400001D00C33F7E7034A934200D01971704761
:102E500054080020540B0020054B1B681B6A13F01C
:102E6000010F04D0024B0122DA60024A1A61704756
:102E7000641D0020C92E0800074B1B681A6A12F057
:102E8000020F08D0186B044A536999685B68013BCC
:102E9000C854024B13617047641D0020A12E080026
:102EA000074B1B681B6A13F0010F08D0044B9A688C
:102EB00022F002029A600122DA60024A1A61704727
:102EC000641D0020C92E0800114AD368013BD3605D
:102ED000B3B91346127E013AD2B21A765969143147
:102EE000596103F5277399420BD032B9084AD2F8D9
:102EF0009C3223F00103C2F89C32054B054A1A614B
:102F00007047A3F5277303F11C015961EDE700BF7A
:102F1000641D0020492F080008B540F6B831074865
:102F200001F0F4FB40B1064BD3F89C2242F08062E2
:102F3000C3F89C22034A1A6108BD00BF701D00201F
:102F4000641D00205130080008B53B4B1B7E33B197
:102F5000394B5B699A7B012A02D0022A38D008BD1E
:102F60001B68354A52681068834208D0334801F024
:102F7000F1FC314A936843F080739360EFE70221DC
:102F8000FFF758FF2C4A936843F0010393605069A0
:102F9000017B090413685960526802F10801C3F803
:102FA00008115168C3F80C114FF4005159624FF4E5
:102FB0008071C3F820115268012A03D01E4B204AA9
:102FC0001A61CCE7C27B002AF8D102221A60F5E729
:102FD000197B090441F480511748026851608168E7
:102FE00041F002018160597BE1B1D160516841F447
:102FF000807151605968012917D09968C2F8001191
:103000005B68013BC2F804314FF4805353620123E3
:10301000C2F8203113600B4B1A68074BDA600A4A7A
:103020001A619CE70021D160E4E703231360024B9F
:10303000064A1A6193E700BF641D00209804080047
:10304000C530080098230020192F0800792E0800A9
:1030500038B5184BD3F89C3213F0807F0BD1154B49
:10306000D3F89C3213F0806F20D1124B0122DA602A
:10307000114A1A6138BD0F4C23F08073C4F89C329A
:103080006368186801F0FEFE0C4801F063FC2546F9
:1030900055F8043F06211868FFF7CCFE2846FFF7D5
:1030A00099FEA36823F00103A360D8E7044801F068
:1030B00051FCDAE7641D0020C92E0800BC0408009A
:1030C000DC04080038B50E4B9B6813F0010F00D0EC
:1030D00038BD0B4D2C4654F8043F03211868FFF708
:1030E000A9FE2046FFF776FE6B69DB7B13B9054A24
:1030F0002A61EDE7024B0122DA60034A1A61E7E731
:10310000641D0020592E0800C92E080008B52B4A5E
:10311000136943F480231361294A0023C2F89C32C7
:1031200002F11C01C2F8A0125161137618E0244884
:1031300003EB830200EB8202002182F82A104FF099
:10314000020C82F82BC05162D161116282F8281002
:1031500003EB830200EB820080F829100133DBB21D
:103160001F2BE4D9164B174A1A6000215960996049
:1031700080211160144A1268DA600121134801F0BD
:10318000C5FA0028F9D00E4B1A68114911612421A3
:1031900011601A68002151604FF4807151626FF420
:1031A000807191620B4A4FF48021C2F88011116046
:1031B000094A1A61094801F0CDFB08BD00040E4020
:1031C000641D00200040084098230020701D00204E
:1031D0001D1D020000E100E0492F08000005080065
:1031E00008B5024B1B69984708BD00BF641D00204D
:1031F000154AD2F89C3243F00103C2F89C32124BBC
:10320000D3F89C3213F0010F1DD000B583B00F4BE3
:103210000F4A1A650C4B1B699847FFF74FFD01F0E9
:1032200087FF0C4B1B680193012101A801F06EFA86
:103230000028F9D0044BD3F89C3213F0010FE6D1EB
:1032400003B05DF804FB7047641D002000120E40BF
:10325000010000A5982300201E4B1B7E202B37D099
:1032600010B572B61B4CD4F8A0324FF0020C83F8A4
:103270000EC05A601873996083F80FC0002243F89B
:10328000142B227E01322276C4F8A03204F5277472
:10329000A34212D00F4BD3F8A03200229A735A6087
:1032A0001A735A739A600221D9731A6062B60A4B74
:1032B0001B68934208DB012010BDA4F5277303F1BE
:1032C0001C02C3F8A022E5E7FFF792FF0120F3E715
:1032D00000207047641D00208C23002038B51F4C4F
:1032E000247E202C37D072B61C4DD5F8A0424FF06A
:1032F000020C84F80EC0636020736173A26084F8CE
:103300000FC0002344F8143B2B7E01332B76C5F805
:10331000A04205F52775AC4212D0104BD3F8A0326D
:1033200000229A735A601A735A739A600221D973F1
:103330001A6062B60A4B1B68934208DB012038BD55
:10334000A5F5277303F11C02C3F8A022E5E7FFF7F8
:103350004FFF0120F3E70020F1E700BF641D0020CC
:103360008C230020F8B51D461F4B1B7E202B37D029
:1033700006460C461D48FFF7A9FC074688B372B6FF
:10338000194BD3F8A0221060012191735460167379
:10339000D57300219160197E013119761432C3F87A
:1033A000A02203F527739A4213D00F4BD3F8A03213
:1033B00000229A735A601A739A600221D9735A7361
:1033C0001A6062B60A4B1B6893420ADAFFF710FFD5
:1033D00007E0A3F5277303F11C02C3F8A022E4E77A
:1033E00000273846F8BD00BF641D0020681D00207E
:1033F0008C230020204AD36A126A134013F4807F82
:1034000010D01E4AD2F89C1241F08071C2F89C1272
:1034100011684FF4005088624FF40070C1F8200129
:103420001749116113F4005F17D014490A684FF46B
:10343000005090624FF40070C2F82001496849685A
:10344000012905D00D494969C97B09B902211160DB
:103450000A498A6822F001028A6013F4805F0AD068
:10346000064A13684FF4805199620221C3F8201173
:103470001960044B1361704700400840641D002030
:1034800051300800792E0800234B1A6AFAB1224BFA
:103490001B6913F4C00F1DD110B51F49C98BD1B1E1
:1034A0001D4C43F480032361A28BAA21606905F0BF
:1034B00093FAE38B63626269A26223681278DA602E
:1034C00001221A6023689A6803225A6110BDDB8BBF
:1034D000002BDCD1704702211068FFF7ABFC0E4BCC
:1034E0001A6942F400121A611A6A5168596202F1AB
:1034F00008019962107A1B7B012B09D0064B1A68D0
:10350000012111601B68C0B2D86003225A61DDE757
:10351000FDF724FB000EF1E7082000202C4B1B696F
:1035200013F4801F52D110B52A4C2269284B93F80E
:103530000EC0012101FA0CF10A43226142685A606F
:1035400082689A60027B1A73427B5A7302695A61DD
:1035500042699A61C2899A831A6942F480121A6197
:103560001A68022111601A682121516000215161FD
:103570004FF0FF3191611849116351639163D16339
:103580005B7B012B10D01248817B90F90E3001F04B
:103590001F015B0901228A40104903F1600441F8D0
:1035A000242041F8232010BD094CA28BAA21606978
:1035B00005F012FAA38B63626269A2622368127833
:1035C000DA6003225A6101221A60DCE700207047AA
:1035D0000820002000040E400130300500E100E02A
:1035E000036913F4801F2AD010B50446827B90F93A
:1035F0000E3002F01F025B09012101FA02F21048AD
:10360000203340F82320A27B94F90E3002F01F02F1
:103610005B099140603340F82310002363606361CD
:10362000A361236107E005211868FFF703FC04F19B
:103630002000FFF7CFFB236A002BF4D110BD7047A9
:1036400000E100E0437B012B09D0C38B4BB9036A37
:103650000BB1002070470123C38318467047002038
:1036600070470020704708B5437B012B0FD0C38BF8
:103670007BB9036A0BB1002008BD802902D8C18341
:103680000120F9E7044801F065F90020F4E7002083
:10369000F2E70020F0E700BF18050800437B012B8C
:1036A00014D0C38B53B9036913F4000F01D1002068
:1036B000704723F40003036103207047036913F488
:1036C000800F01D10120704702207047052070470C
:1036D00008B50A4B0A4A1A6014229A7300225A60EB
:1036E0001A625A619A839A611A61DA621A63054A08
:1036F0005A63054801F02EF908BD00BF08200020DC
:1037000000800040893408003405080008B5024BE9
:103710005B6B984708BD00BF08200020124AD36A9F
:1037200043F00103D362104BDB6A13F0010F1AD090
:1037300000B583B00D4B0E4A1A650B4B5B6B984777
:10374000FFF7BCFA0B4B1B680193012101A800F0A5
:10375000DDFF0028F9D0044BDB6A13F0010FE9D13B
:1037600003B05DF804FB70470820002000120E40F3
:10377000010000A59823002010B582B08DF8071035
:103780000DF1070201212030FFF7A0FA044618B11D
:10379000044B1B68002B02DB204602B010BDFFF774
:1037A000BDFFF9E78C23002010B50C4609B920466F
:1037B00010BD2030FFF78AFA04460028F7D0034BEB
:1037C0001B68002BF3DAFFF7A9FFF0E78C2300203A
:1037D00010B53A4B1B681C69DA6912F0010F30D042
:1037E00014F0010F2DD0354A527BA2B9334A126929
:1037F00012F4800F0FD03148C18B013989B2C183D7
:1038000049B922F48002026142F4000202610122FD
:103810009A6102221A60294B1A689068C0B21B7B19
:10382000012B29D0254B9A691268107099690A6892
:1038300001320A609A69106859699B8B0B4498425F
:103840001ED01E4B1B68DA6912F0020F13D014F061
:10385000020F10D019494A6A013A4A62B2B10B46C6
:103860008A6A511C996250781B7B012B0AD0134B3A
:103870001B68C0B2D86010BDFDF770F9000ED1E72B
:103880001160DEE7FDF76AF9000EF0E702229A61A7
:103890000A4B1B6913F4001FEDD0084C23F40013EE
:1038A0002361236B1343236354F8203F03211868DB
:1038B000FFF7C0FA2046FFF78DFADCE7082000206A
:1038C00038B59D4B1B681A685469126912F4002FB1
:1038D0001BD014F4002F18D05A68D16B9A6811428B
:1038E00040F0AC80944A51680A6842F001000860D8
:1038F00022F0060242F001020A605A7B022A00F01E
:103900008F805A7B032A00F093808B4B1B681A68C8
:10391000116911F4007F1AD014F4007F17D0196BCD
:10392000013919639069002900F0C2805A6B511C5B
:10393000596350781B7B012B00F0B6807E4B1B68CF
:103940001B68C0B2D8617C4B1B685B6998477A4B97
:103950001A681368196911F0010F19D0596911F02B
:10396000010F15D09869C0B2137B012B00F0BB800A
:10397000C0B2FF2800F0BB806F4B1A68116A09685B
:10398000087059680B6843F004030B60936998470B
:10399000694B1B681A68126912F0080F1FD014F0E7
:1039A000080F1CD05A7B012A40F2A680624A516857
:1039B0000A6842F004020A601968D1F81021013245
:1039C000C1F810211968D1F80051D8699A8C0244C5
:1039D000954200F0AD801A680121C2F814111A68EE
:1039E000126912F0100F00F0C98014F0100F00F0EF
:1039F000C5801A6912F4001F40F0A0804E4B196870
:103A00004B7B012B40F2AA8000230A68526912F412
:103A1000007F40F0AC80632B00F2A9800133F4E713
:103A2000DA6A002A7FF46DAF1A680021D16168E775
:103A30001A68936843F00103936066E73E4A516851
:103A40000A6822F001020A601A6912F4001F0CD100
:103A5000394B1B685A7B022A1ED05A7B032A7FF4FB
:103A600054AF1B6801229A604FE71A681021D16099
:103A70001A6922F400121A61DB6A05211868FFF73F
:103A8000D9F92D4D28682C30FFF7A4F96A6813681E
:103A900043F002031360DBE719680122C1F8042137
:103AA0001968C1F81421D8E7FDF758F8000E45E76A
:103AB0004FF40071D160204D69680A6842F002023B
:103AC0000A60DB6A03211868FFF7B4F928682C3014
:103AD000FFF780F92B681A6922F400121A611B683B
:103AE00001229A602FE7FDF739F8000E40E7124AED
:103AF0009368013393603FE70022DA841A6922F465
:103B000080021A6142F400021A610B4AD168013145
:103B1000D1601269527B12B95A68996811631A68A8
:103B200040F20221C2F820111A680821D16056E73C
:103B3000C1F800014FE700BF40200020DB6A0321ED
:103B40001868FFF777F90E4C20682C30FFF742F920
:103B50002268136923F4001313614FE70B684FF4D5
:103B60000072C3F820210B681022DA604CE7044B86
:103B70001B695B7B13B94B688A681A6338BD00BF49
:103B80004020002010B5504B1C69E36A002B3BD04D
:103B9000236913F4C00F28D1637B13B96368A2684B
:103BA0005A63E38C002B33D0236943F480032361F1
:103BB000A28C0021E06904F00FFFE2692368C3F8DA
:103BC0000021E2692368C3F808212368E28CC3F866
:103BD00004212368E28CC3F80C21236808229A6030
:103BE000236840F20112C3F82021374B1B6993F878
:103BF00028300E2B50D00F2B53D00D2B5CD1324BD5
:103C000003F114021A6110BDE38C002BEDD0BFE765
:103C1000E36A02211868FFF70DF92B4B1B691A693B
:103C200042F400121A615A7B032A12D0DA6A08326F
:103C30001968C1F80821D96A1A684968C2F80C11D4
:103C40001A68102191601B684FF48072C3F820211C
:103C5000CBE7DA6A5168196302F108015963107AF7
:103C60001B7B012B14D0184B1B691A680121D160F2
:103C70001A68082111601A68402111601A68C0B2E0
:103C8000D0611A684FF4007191605B699847ACE7A6
:103C9000FCF764FF000EE6E70B4B03F14C021A61E0
:103CA000B1E7094B03F184021A61D3F8BC2022F07A
:103CB0000102C3F8BC20A6E7044800F04BFE024B0B
:103CC00003F184021A619EE7402000204C050800A1
:103CD0002DE9F04103460278032A0ED0042A16D0BB
:103CE000022A40F09A801A256FF0080608274FF440
:103CF0000C6C4FF0500E4B4813E030254FF0FF3660
:103D00000027DFF824C14FF0600E484809E0002585
:103D10006FF400264FF40027DFF814C14FF0500E67
:103D20004448026912F4801F79D1434C226990F80B
:103D30002880012101FA08F10A4322615A68426091
:103D40009A6882601A7B02735A7B42739A69C261D5
:103D5000DA6902621A8C8284026942F4801202617A
:103D60001A6942615A6982610268C2F800E0026819
:103D7000C2F804C0026897600268D66002681562E3
:103D8000427B022A1CD0437B032B41D090F8282091
:103D900090F9283002F01F025B09012101FA02F2BA
:103DA000264C603344F8232090F8282090F92830DE
:103DB00002F01F025B09914044F82310BDE8F08136
:103DC00099690268C2F800119B6901330268C2F860
:103DD000103102680123C2F804310268C2F81431BC
:103DE000002202620168164AC1F808210168C1F880
:103DF00018210268C2F80C310268C2F81C3103684D
:103E000040F20112C3F8202103680E4A9A60BAE713
:103E100003684FF400229A60B8E70020CEE7002044
:103E2000CCE700BFC4200020CE184500542000205D
:103E3000FF1841008C20002000040E4000E100E04B
:103E40000021002018000800036913F4801F32D0FD
:103E500010B5044690F8282090F9283002F01F028F
:103E60005B09012101FA02F21348203340F82320B4
:103E700094F8282094F9283002F01F025B09914041
:103E8000603340F8231000236360E3612362236101
:103E90006361A36107E005211868FEF7CBFF04F119
:103EA0002C00FEF797FFE36A002BF4D1034B044A82
:103EB000C3F8C42010BD704700E100E0402000209E
:103EC000853B0800437B012B00D070474368826824
:103ED0005A63FAE7437B012B00D07047436882683E
:103EE0001A63FAE7437B023BDBB2012B09D9C38C8F
:103EF0004BB9C36A0BB1002070470123C384184635
:103F00007047002070470020704708B5437B023B94
:103F1000DBB2012B0FD9C38C7BB9C36A0BB1002074
:103F200008BD802902D8C1840120F9E7044800F0C7
:103F300011FD0020F4E70020F2E70020F0E700BFC9
:103F400064050800437B023BDBB2012B14D9C38C10
:103F500053B9036913F4000F01D10020704723F413
:103F60000003036103207047036913F4800F01D13C
:103F700001207047022070470520704708B51E4B8E
:103F80001E4AC3F884200D2283F8AC200022C3F817
:103F90008820C3F8B020C3F8A020A3F8A820C3F855
:103FA000A420C3F89420164959610E2183F83C10CF
:103FB0009A611A641A631A875A635A621149D9645A
:103FC0000F2183F874101A659A679A66A3F8702017
:103FD000DA66DA6503F184011961C3F8BC20C3F81D
:103FE000C820C3F8CC20C3F8D020074AC3F8C420A7
:103FF000064800F0AFFC08BD40200020000009404A
:104000000040094000800940853B08008005080009
:1040100008B5024BD3F8C430984708BD40200020B3
:10402000164BD3F8BC2042F00102C3F8BC2003F1C8
:1040300084021A61114BD3F8BC3013F0010F1CD06D
:1040400000B583B00E4B0F4A1A650C4BD3F8C43041
:104050009847FEF733FE0C4B1B680193012101A822
:1040600000F054FB0028F9D0044BD3F8BC3013F017
:10407000010FE7D103B05DF804FB7047402000203A
:1040800000120E40010000A59823002010B582B058
:104090008DF80710C38C1BB10024204602B010BD60
:1040A0000DF1070201212C30FEF710FE0446002816
:1040B000F3D0034B1B68002BEFDAFFF7B1FFECE7FF
:1040C0008C23002010B5C38C13B10024204610BDF2
:1040D0002C30FEF7FBFD04460028F7D0034B1B688D
:1040E000002BF3DAFFF79CFFF0E700BF8C230020E2
:1040F00008B5074B03F184011A4642F8C81B5A6001
:10410000D3F8D4200132C3F8D420FFF7D9FB08BD7F
:104110004020002008B5074B03F114011A4642F86D
:10412000CC1B5A60D3F8D8200132C3F8D820FFF74F
:10413000C7FB08BD4020002008B5074B03F14C0128
:104140001A4642F8D01B5A60D3F8DC200132C3F87B
:10415000DC20FFF7B5FB08BD4020002008B5314B3F
:104160001B689A681AB15B6813F4001F0CD02D4BC2
:104170001B6893F82230083B072B4ED8DFE803F08A
:104180002B4D4D4D4D30353A02211068FEF752FE51
:1041900024490B685A6842F400125A609A6808323F
:1041A0001868C0F8082198681A684068C2F80C01BD
:1041B0001A68102090600A790132D2B20A71052A79
:1041C00003D98A6842F080628A601B684FF480726B
:1041D000C3F82021CBE7134B03F10C021A6008BD92
:1041E000104B03F130021A60F9E70E4B03F1540251
:1041F0001A60F4E70B4B03F178021A600A4B1B6854
:10420000002BECDAA2F178031B79002BE7D1783A86
:10421000936823F001039360E1E7024B03F1780216
:104220001A60DCE7202100208C23002010B52C4BE5
:10423000D3F89C301A68116911F0080F19D0516930
:1042400011F0080F15D0D2F810110131C2F8101179
:104250001968D1F8104158691A8C0244944215D05B
:10426000DB6998471E4BD3F89C301B680122C3F8CA
:1042700014211B4BD3F89C201368196911F0100FFF
:1042800003D05B6913F0100F03D110BDC1F810010A
:10429000E6E7936803211868FEF7CCFD104CD4F8CC
:1042A0009C000830FEF796FDD4F89C305A6822F442
:1042B00000125A601A684FF40071C2F820111B688E
:1042C0001022DA60237913B1013B2371DDE7054841
:1042D00000F040FB024A936843F000739360D4E718
:1042E000202100209805080003460278012A03D007
:1042F000022A5AD12F4800E02F48426812F0010FDD
:1043000055D110B42D4C216990F822C0012202FA37
:104310000CFC41EA0C012161596841615988018412
:1043200099688161D968C161416811434160016840
:1043300050240C6001684FF40C644C600168082440
:104340008C6001686FF00804CC6001681A240C626C
:104350005C680168C1F800415B6813440168C1F8FA
:1043600010310368C3F804210368C3F814210368FB
:1043700040F20111C3F8201190F8221090F9223078
:1043800001F01F015B0902FA01F10D4C603344F8A2
:10439000231090F8221090F9223001F01F015B09E0
:1043A0008A4044F8232010BC70470020704700204A
:1043B000704700BF2C2100209821002000040E40EF
:1043C00000E100E0436983B310B5044690F8222071
:1043D00090F9223002F01F025B09012101FA02F27A
:1043E0001248203340F8232094F8222094F92230F8
:1043F00002F01F025B099140603340F82310002354
:104400006361A361E361636007E005211868FEF75B
:1044100011FD04F10800FEF7DDFCA368002BF4D1C8
:10442000034B044AC3F8A02010BD704700E100E030
:10443000202100205D4108001C4B1D4A9A67002284
:10444000C3F88020C3F88C20A3F89820C3F89020EC
:10445000DA67082183F89A101649D9605A611A62FE
:104460009A855A621A610D2183F82E101249196338
:104470009A635A64A3F850209A645A630E2183F811
:1044800052100E495965DA659A66A3F87420DA6607
:104490009A650F2183F8761003F1780119609A600C
:1044A0001A71074AC3F8A020704700BF20210020DE
:1044B00000060E400000094000400940008009400D
:1044C0005D41080008B5024BD3F8A030984708BDFD
:1044D00020210020134B9A6842F001029A6003F1F8
:1044E00078021A600F4B9B6813F0010F19D000B5CA
:1044F00083B00D4B0D4A1A65FFF7E4FFFEF7DEFBB4
:104500000B4B1B680193012101A800F0FFF8002864
:10451000F9D0044B9B6813F0010FEAD103B05DF8AA
:1045200004FB70472021002000120E40010000A56E
:104530009823002010B582B08DF807100DF1070206
:1045400001210830FEF7C2FB044618B1044B1B687A
:10455000002B02DB204602B010BDFFF7BBFFF9E7DE
:104560008C23002010B50C4609B9204610BD083038
:10457000FEF7ACFB04460028F7D0034B1B68002B6A
:10458000F3DAFFF7A7FFF0E78C23002008B5064B0E
:1045900003F17802C3F89C20D3F8A4200132C3F8B9
:1045A000A420FFF743FE08BD2021002008B5064BDC
:1045B00003F10C02C3F89C20D3F8A8200132C3F801
:1045C000A820FFF733FE08BD2021002008B5064BC8
:1045D00003F13002C3F89C20D3F8AC200132C3F8B9
:1045E000AC20FFF723FE08BD2021002008B5064BB4
:1045F00003F15402C3F89C20D3F8B0200132C3F871
:10460000B020FFF713FE08BD20210020704770473F
:1046100000F1804000F50020C161704700F180404A
:1046200000F50020036843F005030360704700F1C4
:10463000804000F50020036843F0020303607047E8
:1046400000F1804000F50020006980B270474028EA
:1046500000D07047014B1960FBE700BFD421002058
:1046600008B5114B114AC3F8C420114A5A642622D6
:10467000DA6510225A66EF229A6602221A640D4BFE
:104680000D4A1A600D4A4FF40001C2F88011116002
:104690000B4A5A600B4800F05DF90B4A136843F06F
:1046A0000803136008BD00BF0000084000081000A8
:1046B00003C40C00D42100200D46080000E100E0F6
:1046C0000F460800B80508009023002008B5024BEB
:1046D0005B68984708BD00BFD421002008B5084B8F
:1046E0001B6E13F0100F05D0064B9A6801329A60CA
:1046F0001B689847044B4FF40002C3F8802108BDA3
:1047000000000840D421002000E100E00268094BCD
:104710001B689A4206D8074B1B689B1A8B4206D22D
:1047200000207047034B1B689B1A013BF6E70120F2
:10473000704700BF98230020A0F13003DBB2092BA3
:104740000BD9A0F14103DBB2052B09D9A0F161031C
:10475000DBB2052B07D9FF2070473038C0B2704755
:104760003738C0B270475738C0B27047092802D8EE
:104770003030C0B27047A0F10A03DBB2052B02D87B
:104780003730C0B27047FF207047092802D8303058
:10479000C0B27047A0F10A03DBB2052B02D8573034
:1047A000C0B27047FF20704730B585B084460846D8
:1047B0000022194B1446114613E001210EF1300E70
:1047C00004F110056D4405F80CEC0134E4B2BCFBB7
:1047D000F3F503FB15CC114DA5FB0353DB080132A8
:1047E000D2B2092A07D8BCFBF3FE1EF0FF0FE4D1BA
:1047F0000029ECD0E2E719B930238DF80430012408
:1048000004F110036B44002203F80C2C01A904F0FE
:1048100065F9204605B030BD00CA9A3BCDCCCCCC62
:104820000A7803789A4206D02BB10A2B03D00D2BBD
:1048300001D00130F4E70D2B26D842F2014222FAD2
:1048400003F313F0010F2BD10B4601E03A2A2DD0D0
:1048500093F800C00278944518D1013013F801CFC5
:10486000BCF10D0FF4D842F2014222FA0CF212F020
:10487000010FEDD00278202A14D0E7D80A2A13D0ED
:104880000D2AE5D1012070470B46E1E70D2AC7D874
:1048900042F20143D34013F0010FC1D00020704712
:1048A00000207047012070470120704701207047A9
:1048B000054B1A68013243F8842B9A4200D07047A6
:1048C000014B1A1D1A60FAE7E421002008B5064BD7
:1048D000064AC3F8842093F88820054B03EBC203F3
:1048E0005B68984708BD00BFE42100202D4B0800FD
:1048F0006002002010B50446522804D0472C0FD087
:10490000422C1AD010BD0020FEF79EF80120FEF7C1
:104910009BF80220FEF798F80320FEF795F8EDE7E4
:104920000420FEF791F80520FEF78EF80620FEF72A
:104930008BF80720FEF788F8E2E70820FEF784F8F6
:104940000920FEF781F80A20FEF77EF80B20FEF71B
:104950007BF8D7E710B502460346002101E001319C
:1049600001331C78002CFAD1024BD3F88C00FFF7EE
:10497000F9FD10BDE421002000B585B0054A01AB6A
:1049800007CA83E807001846FFF7E4FF05B05DF8A3
:1049900004FB00BFD005080030B593B00BAC1B4D35
:1049A0000FCD0FC495E8070003C424F8022B120CA6
:1049B0002270EC46164C0FCCACE80F000FCCACE8E4
:1049C0000F0094E80700ACE803008CF800200BA867
:1049D000FFF7C0FF0F4BD3F8903013F4803F09D09E
:1049E00023F480330B4AC2F890300B48FFF7B2FF34
:1049F00013B030BD43F48033064AC2F89030074804
:104A0000FFF7A8FF6846FFF7A5FFF1E7DC05080000
:104A1000F8050800E42100204002002048020020A0
:104A200010B58AB00DF1040C144C0FCCACE80F009B
:104A30000FCCACE80F0023682CF8023B1B0C8CF861
:104A4000003001A8FFF786FF0D4BD3F8903013F02C
:104A5000020F09D023F00203094AC2F89030094836
:104A6000FFF778FF0AB010BD43F00203044AC2F812
:104A700090300548FFF76EFFF4E700BF24060800FA
:104A8000E4210020400200204802002000B585B04B
:104A9000224A01AB07CA83E807001846FFF75AFF0E
:104AA0001F4BD3F8903013F0010F0AD023F001030D
:104AB0001B4AC2F890301B48FFF74CFF05B05DF869
:104AC00004FB43F00103164AC2F890301648FFF782
:104AD00041FF0020FDF700FF0120FDF7FDFE022051
:104AE000FDF7FAFE0320FDF7F7FE0420FDF7F4FEC4
:104AF0000520FDF7F1FE0620FDF7EEFE0720FDF78D
:104B0000EBFE0820FDF7E8FE0920FDF7E5FE0A2090
:104B1000FDF7E2FE0B20FDF7DFFECFE748060800B9
:104B2000E42100204002002048020020F8B50024C3
:104B300058E0734BD3F8903013F0040F0ED0704A46
:104B400092F8943092F99420002A25DB6C4AD1180F
:104B500081F89850013382F894301DE0684B93F847
:104B6000943043B1013BDBB2654A82F894301A4479
:104B7000002382F89830624BD3F8182103F58E7326
:104B80009A4209D0A3F58E73013AC3F81821B3F8FD
:104B90005C21013AA3F85C21594E96F85E715948A0
:104BA000FFF7D8FE06EB8707C7F8600196F85E317D
:104BB0000133DBB286F85E31102B78D0504BD3F83E
:104BC000903013F0010F40F086804D4BD3F8A021B8
:104BD0000132C3F8A02184339A4203D3843B1A1DC7
:104BE000C3F8A021464BD3F8A0211B689A4278D085
:104BF000002C74D11578082D9BD00D2D5BD0404A28
:104C000092F8943092F99420002A06DB3C4AD1189D
:104C100081F89850013382F89430394E96F85E71DD
:104C20002946D6F88C00FFF785FC06EB8707C7F806
:104C3000600196F85E310133DBB286F85E31102BED
:104C400045D02F4BD3F8903013F0040FB6D12C4B36
:104C5000D3F8182102F8015BC3F81821B3F85C11EE
:104C60000131A3F85C1103F5AE739A42A6D30D2D62
:104C7000A4D0A3F5AE7606F58E73C6F818310023DE
:104C8000A6F85C3196F85E711F48FFF763FE06EBED
:104C90008707C7F8600196F85E310133DBB286F80A
:104CA0005E31102B8AD1002286F85E2186E7002231
:104CB00086F85E2182E7124BD3F8903013F0040F90
:104CC0009DD10F4B114AC3F88420012497E700229D
:104CD00086F85E21B5E72846FFF70CFE75E700244D
:104CE00000E000240F2C0AD8054B03EB8403D3F813
:104CF000600120B1FDF76EFF0134E4B2F2E7F8BDC8
:104D0000E4210020A0020020A4020020114D080090
:104D100008B5002200E01A46264B134493F81C11F4
:104D2000254B9B5C99423DD1531CDBB2032BF2D93E
:104D3000012151B3911CC8B21E490B4493F91C3197
:104D4000303B59B2DBB2092B1FD801EB81014FEA8E
:104D5000410C4FFA8CF1174B83F888C00332D2B262
:104D6000034493F91C31303B58B2DBB2092B0CD809
:104D70000B18DBB20F4981F88830072B05D80B469A
:104D8000134493F81C310D2B10D00C48FFF7E2FDB3
:104D9000084B0B4AC3F88420064B03F58E72C3F808
:104DA000182108BD531CDBB20021C2E7054AC1F837
:104DB0008420F1E7E421002040510800C4020020D3
:104DC0002D4B0800CD48080000B583B040F60A53CB
:104DD000ADF8043001AA0221034BD3F88C00FFF791
:104DE000C1FB03B05DF804FBE421002030B593B0B3
:104DF0000BAC214D0FCD0FC495E8070003C4227002
:104E00003A238DF8063020238DF807300A238DF8D9
:104E100028300D238DF8293000248DF82A400BA866
:104E2000FFF798FD11E0154A52F83410C95C03F100
:104E30004C026A4402F8441C0133DBB21F2BF2D946
:104E400001A8FFF787FD0134E4B2072C0FD8302307
:104E50008DF804300A4BA3FB0423DB0803EB830328
:104E60005A00A21A30328DF805200023E6E7FFF73A
:104E7000ABFF13B030BD00BF540608006002002035
:104E8000CDCCCCCC70B584B00021254B0C460D4662
:104E90000CE00DB10134E4B2B0FBF3F203FB1200FD
:104EA000204AA2FB0323DB080131C9B209290DD82E
:104EB000B0FBF3F23032D2B201F110060DEB060C6A
:104EC0000CF80C2C302AE4D00125E3E705B90124C5
:104ED0002646204603F0C2FC054608B1092310E02F
:104EE000114B022283F8A421104AC3F88420F5E76D
:104EF000013C03F110026A4412F80C2C2A55E4B26A
:104F0000013B002CF4D12A463146074BD3F88C00E4
:104F1000FFF728FB284603F0A9FC04B070BD00BFD2
:104F200000CA9A3BCDCCCCCCE4210020314F080004
:104F300010B50D4CD4F8903043F00043C4F89030D5
:104F40000A48FFF707FD94F8A401FFF79BFFFFF75E
:104F50003BFF0023A4F85C3104F58E73C4F81831CC
:104F6000034BC4F8843010BDE4210020E802002087
:104F70002D4B080084460D4B93F8940000230AE063
:104F80000A4A1A4492F898100CF80310002182F88B
:104F900098100133DBB2054A92F894209A42EFD878
:104FA000024B002283F89420704700BFE4210020C8
:104FB00008B5054AD2F8903043F00403C2F89030A7
:104FC0000248FFF7C7FC08BDE42100207006080076
:104FD00008B5054AD2F8903023F00403C2F89030A7
:104FE0000248FFF7B7FC08BDE4210020980608003E
:104FF00030B599B013AC184D0FCD0FC42B6824F801
:10500000023B1B0C23704822144901A803F06EFDDB
:1050100001A8FFF79FFC00240122154602E06D0065
:105020000134E4B2072C0ED80D4B1B682B42F6D18D
:1050300004EB840253000B481844FFF78BFCFFF786
:10504000C3FE0022EBE71AB9FFF7BEFE19B030BD70
:1050500013A8FFF77FFCF7E7C0060800D406080096
:10506000902300203452080010B58CB00DF1140CC0
:10507000284C0FCCACE80F0094E80700ACE8030024
:10508000ACF80020002305E0234A1A4400211171E6
:1050900001339BB27F2BF7D91F4A131DC2F8A031F1
:1050A0001360002382F8943006E01B4A1A44002162
:1050B00082F898100133DBB213F0800FF5D0164C54
:1050C00004F58E73C4F8183102238DF80430231DC3
:1050D000029303948023ADF80630104B049301A88B
:1050E000FFF702F9C4F88C0080B10D48FFF732FCDD
:1050F00005A8FFF72FFC0B4A136843F00403136065
:10510000054B094AC3F884200CB010BD074AC4F807
:105110008420F9E71C070800E4210020B1480800BA
:1051200000030020902300202D4B0800314F080081
:1051300008B5024BD3F88430984708BDE42100201D
:10514000656E2B630000000008B5364C236843F001
:105150000043236000F0A0FE00F0A6FE00F0FAFE7F
:1051600000F0CEFFFDF7FAFA00F06AFFFDF752FDFE
:10517000FFF762F9FFF778FFFDF746FAFFF770FADD
:10518000FEF7A6FAFEF7FAFEFDF7C0FFFBF780FD7B
:1051900001F0A4FCFDF78CFCFCF7F6FCFDF728F908
:1051A00001F0A2F8FBF722F800F0EEFD00F051FE4E
:1051B00000F061FEFFF71CFF236823F0004323602B
:1051C000194B1A4A1A6500F04DFFFDF777FDFFF7FE
:1051D00079F9FFF7ADFFFDF761FAFFF777FAFEF710
:1051E00095FAFEF715FFFDF7FBFFFBF79FFD01F0BA
:1051F00009FCFDF7C3FCFCF76DF9FDF715F901F0AB
:10520000C1F8FBF711F800F01BFE00F02BFE00F0D8
:105210003BFE074C4FF00045256300F053FF6563EC
:10522000CEE700BF8C23002000120E40010000A535
:10523000000C0E404C4544000000000000004255A8
:1052400054544F4E000000004445425547000000B2
:10525000000054494D455200000000004C434400FA
:105260000000000000004144430000000000000076
:10527000414E5400000000000000434150544F557F
:105280004348000008B50020FCF7AEFE032800D01C
:1052900008BD024B024A1A60FAE700BF9C230020B7
:1052A000D95B080008B50020FCF79EFE012800D05D
:1052B00008BD0020FCF796FF18B1044B044A1A60A1
:1052C000F6E7024B034A1A60F2E700BF9C23002076
:1052D00069530800455A080070B582B006460E238F
:1052E000ADF80430ADF80630002530E0684601F036
:1052F0001FFB6946194801F059FA0134072C25DCD7
:105300002B010133ADF8003023010133ADF8023039
:1053100006EB451353F824305A1E032AE6D92BB165
:10532000062B0BD0684601F003FBE6E7684601F068
:10533000FFFA69460A4801F039FADEE7684601F0EB
:10534000F7FA6946074801F031FAD6E70135032D2F
:1053500001DC0024D2E702B070BD00BF446D08003C
:10536000286D08000C6D080070B5894B5B6863B14F
:10537000874B9B68032B18DD854BDB68012B11D015
:105380009BB9834B834A1A600FE00020FCF72CFE88
:105390000328EDD10020FCF777FF7D4A53680133E5
:1053A0005360E5E77A4B7C4A1A600020FDF7FEF86F
:1053B00098B932210020FDF70FF9F0B93221012010
:1053C000FDF70AF958BB724B9B68032B4FD8DFE8F7
:1053D00013F038006C00C70066010120FDF7E6F805
:1053E0000028E6D00020FDF7EDF80120FDF7EAF8EF
:1053F000674A936801339360DBE70020FDF7D6F836
:105400000028DBD00020FDF7DDF8614A1369013385
:105410001361072BD2DD134600221A61CEE701206B
:10542000FDF7C4F80028CED00120FDF7CBF8584A8C
:10543000536901335361032BC5DD134600225A61C2
:10544000C1E7534B58691A6902EBC004534901255F
:1054500041F824509B699A420DD04D49CC6903EB29
:10546000C4034E4C052544F823508A61C8614B485B
:10547000FFF732FF70BD4649C9698842EDD1F6E7B2
:105480000133072B0CDC03EBC002444951F8222006
:10549000022AF5D103EBC002052441F82240EFE7D0
:1054A0000130032803DC0023EBE70020F9E7384B49
:1054B00059691B6903EBC100384A52F82020052ABC
:1054C0000DD0022A0BD00133314A1361072B02DDC4
:1054D000134600221A612E4B1A699A61C7E75A1EB9
:1054E00002EBC1042D4850F82400052803D00228FF
:1054F00001D0062BE7DC581C00EBC105274C54F803
:105500002540052C03D0022C01D0062BDBDD03EB5C
:10551000C105224C022644F82560062B04DD02EB6F
:10552000C10244F82260A2E700EBC1001B4B02223B
:1055300043F820209BE70133072B0CDC03EBC00270
:10554000164951F82220032AF5D103EBC0020524A5
:1055500041F82240EFE70130032803DC0023EBE7AA
:105560000020F9E70A4B58691B6903EBC0010B4A9D
:1055700052F82120052A13D0032A11D00133044AFE
:105580001361072B7FF773AF134600221A616EE792
:105590009C230020D95B08009D5708003C03002095
:1055A000591E01EBC0047B4A52F82420052A2BD057
:1055B000032A29D0072BE1D0052A30D0032A2ED088
:1055C000062BDBD05A1C02EBC005724C54F8254068
:1055D000052C2FD0032C2DD0052BCFDD03EBC004E1
:1055E0006C4D032645F82460062B2ED0072B35D0B2
:1055F000684902EBC002032441F82240023303EB66
:10560000C00341F8234032E79C1E04EBC004614D07
:1056100055F82440052CCFD0032CCBD1CCE75A1C15
:1056200002EBC0025B4C54F82220052ACAD0032AA0
:10563000C6D1C7E79C1C04EBC004564D55F8244066
:10564000052CCBD0032CC7D1C8E701EBC00145F82E
:10565000216002EBC00245F8226008E74D4A01EBE9
:10566000C001032442F82140023B03EBC00342F88F
:105670002340FCE60133072B0CDC03EBC002454959
:1056800051F82220042AF5D103EBC002052441F889
:105690002240EFE70130032803DC0023EBE7002082
:1056A000F9E73D4B58691B6903EBC001394A52F8D1
:1056B0002120043A012A09D90133374A1361072B03
:1056C0007FF7D5AE134600221A61D0E6591E01EBD2
:1056D000C004304A52F82420043A012A26D9072B64
:1056E000EAD0012A2CD9062BE6D05C1C04EBC005BD
:1056F000284A52F82520043A012A2BD9052BDBDD54
:1057000003EBC002234D042645F82260062B2BD064
:10571000072B32D01F4A04EBC004042142F82410A6
:10572000023303EBC00342F82310A0E69C1E04EBF7
:10573000C004184D55F82440043C012CCFD8D0E7C4
:105740005A1C02EBC002134C54F82220043A012ADE
:10575000C9D8CAE79A1C02EBC0020E4D55F82220A8
:10576000043A012ACAD8CBE701EBC00245F822600F
:1057700004EBC00445F8246079E6064C01EBC00256
:10578000042144F82210023B03EBC00344F8231029
:105790006DE600BF3C0300209C23002070B55B4BEE
:1057A0001A699B699A4217D0584B9A615A69DA6113
:1057B0000020FCF7FBFEA8B932210020FCF70CFF0B
:1057C000002837D132210120FCF706FF002867D1DD
:1057D0004F48FFF781FD70BD4C4B5969DB69994219
:1057E000E2D1E5E70120FCF7E1FE0028E4D000204B
:1057F000FCF7E8FE0120FCF7E5FE444C62692369F2
:10580000444D03EBC20305EB83030026C3F880601D
:10581000C5F8006105F18000FFF75EFD626923694C
:1058200003EBC20385F804313046FCF7DBFC3A4B4E
:105830002360C1E70020FCF7B9FE0028C2D0002099
:10584000FCF7C0FE314A136901331361072B02DDF7
:10585000134600221A612D4A13699269934219D0A6
:105860002A49C8692B4902EBC00201EB8202D1F838
:105870000011C2F88010254A5169264A03EBC10382
:1058800002EB8303D3F88010C2F800110622C3F89C
:10589000802097E71D494869C9698842E0D1EAE755
:1058A0000120FCF783FE002892D00120FCF78AFE3D
:1058B000164A536901335361032B02DD134600225C
:1058C0005A61124A13699269934219D00F49C86903
:1058D000104902EBC00201EB8202D1F80011C2F8BC
:1058E00080100A4A51690B4A03EBC10302EB8303A0
:1058F000D3F88010C2F800110622C3F8802067E7B1
:1059000002494869C9698842E0D1EAE79C2300203E
:10591000BC0300203C0300208552080070B582B013
:1059200001F04EF8002408E00023ADF80430ADF893
:10593000064001A800F00EFF01347F2CF4DD0024A6
:1059400008E0ADF804400023ADF8063001A800F0EF
:1059500001FF01343F2CF4DD102613E0731EADF877
:105960000430A5B2ADF8065001A800F0F3FEADF882
:105970000460ADF8065001A800F0ECFE01347F2C65
:10598000ECDD1036302E01DC0024F8E7102613E0A1
:10599000A5B2ADF80450731EADF8063001A800F0B2
:1059A000D9FEADF80450ADF8066001A800F0D2FEB3
:1059B00001343F2CECDD1036702E01DC0024F8E7BA
:1059C000002408E03F23ADF80430ADF8064001A8FC
:1059D00000F0C0FE01347F2CF4DD002408E0ADF8B7
:1059E00004407F23ADF8063001A800F0B3FE013477
:1059F0003F2CF4DD02B070BD08B50420FCF792FF27
:105A00000020FCF78FFF0820FCF78CFF0520FCF737
:105A100089FF0120FCF786FF0920FCF783FF0620A1
:105A2000FCF780FF0220FCF77DFF0A20FCF77AFFDD
:105A30000720FCF777FF0320FCF774FF0B20FCF72F
:105A400071FF08BD08B5FFF7D7FF0320FCF744FF3F
:105A500000F0B6FF0C20FCF765FF08BD08B5114B40
:105A60001B6A012B0ED0FFF7C7FF0020FCF734FFA5
:105A70000120FCF731FF0220FCF72EFF0320FCF78A
:105A80002BFF08BDFFF7B8FF0820FCF725FF092012
:105A9000FCF722FF0A20FCF71FFF0B20FCF71CFF7E
:105AA000EFE700BF9C23002010B5002004460CE067
:105AB0000133072B08DC03EBC002234951F82220F5
:105AC000012AF5D10134F3E70130032801DC00237A
